{
	"contracts/2_RealEstatesmartcontract.sol": {
		"RealEstateAggreement": {
			"abi": [
				{
					"inputs": [
						{
							"internalType": "uint256",
							"name": "_price",
							"type": "uint256"
						}
					],
					"stateMutability": "nonpayable",
					"type": "constructor"
				},
				{
					"inputs": [],
					"name": "price",
					"outputs": [
						{
							"internalType": "uint256",
							"name": "",
							"type": "uint256"
						}
					],
					"stateMutability": "view",
					"type": "function"
				},
				{
					"inputs": [],
					"name": "sellerPaysClosingFees",
					"outputs": [
						{
							"internalType": "bool",
							"name": "",
							"type": "bool"
						}
					],
					"stateMutability": "view",
					"type": "function"
				},
				{
					"inputs": [
						{
							"internalType": "bool",
							"name": "_ownerPays",
							"type": "bool"
						}
					],
					"name": "setClosingFeeAgreement",
					"outputs": [],
					"stateMutability": "nonpayable",
					"type": "function"
				},
				{
					"inputs": [
						{
							"internalType": "uint256",
							"name": "_price",
							"type": "uint256"
						}
					],
					"name": "setPrice",
					"outputs": [],
					"stateMutability": "nonpayable",
					"type": "function"
				}
			],
			"devdoc": {
				"kind": "dev",
				"methods": {},
				"version": 1
			},
			"evm": {
				"assembly": "    /* \"contracts/2_RealEstatesmartcontract.sol\":67:833  contract RealEstateAggreement {... */\n  mstore(0x40, 0x80)\n    /* \"contracts/2_RealEstatesmartcontract.sol\":196:322  constructor(uint256 _price) {... */\n  callvalue\n  dup1\n  iszero\n  tag_1\n  jumpi\n  0x00\n  dup1\n  revert\ntag_1:\n  pop\n  mload(0x40)\n  sub(codesize, bytecodeSize)\n  dup1\n  bytecodeSize\n  dup4\n  codecopy\n  dup2\n  dup2\n  add\n  0x40\n  mstore\n  dup2\n  add\n  swap1\n  tag_2\n  swap2\n  swap1\n  tag_3\n  jump\t// in\ntag_2:\n    /* \"contracts/2_RealEstatesmartcontract.sol\":242:252  msg.sender */\n  caller\n    /* \"contracts/2_RealEstatesmartcontract.sol\":234:239  owner */\n  0x00\n  dup1\n    /* \"contracts/2_RealEstatesmartcontract.sol\":234:252  owner = msg.sender */\n  0x0100\n  exp\n  dup2\n  sload\n  dup2\n  0xffffffffffffffffffffffffffffffffffffffff\n  mul\n  not\n  and\n  swap1\n  dup4\n  0xffffffffffffffffffffffffffffffffffffffff\n  and\n  mul\n  or\n  swap1\n  sstore\n  pop\n    /* \"contracts/2_RealEstatesmartcontract.sol\":270:276  _price */\n  dup1\n    /* \"contracts/2_RealEstatesmartcontract.sol\":262:267  price */\n  0x01\n    /* \"contracts/2_RealEstatesmartcontract.sol\":262:276  price = _price */\n  dup2\n  swap1\n  sstore\n  pop\n    /* \"contracts/2_RealEstatesmartcontract.sol\":310:315  false */\n  0x00\n    /* \"contracts/2_RealEstatesmartcontract.sol\":286:307  sellerPaysClosingFees */\n  0x02\n  0x00\n    /* \"contracts/2_RealEstatesmartcontract.sol\":286:315  sellerPaysClosingFees = false */\n  0x0100\n  exp\n  dup2\n  sload\n  dup2\n  0xff\n  mul\n  not\n  and\n  swap1\n  dup4\n  iszero\n  iszero\n  mul\n  or\n  swap1\n  sstore\n  pop\n    /* \"contracts/2_RealEstatesmartcontract.sol\":196:322  constructor(uint256 _price) {... */\n  pop\n    /* \"contracts/2_RealEstatesmartcontract.sol\":67:833  contract RealEstateAggreement {... */\n  jump(tag_6)\n    /* \"#utility.yul\":88:205   */\ntag_8:\n    /* \"#utility.yul\":197:198   */\n  0x00\n    /* \"#utility.yul\":194:195   */\n  dup1\n    /* \"#utility.yul\":187:199   */\n  revert\n    /* \"#utility.yul\":334:411   */\ntag_10:\n    /* \"#utility.yul\":371:378   */\n  0x00\n    /* \"#utility.yul\":400:405   */\n  dup2\n    /* \"#utility.yul\":389:405   */\n  swap1\n  pop\n    /* \"#utility.yul\":334:411   */\n  swap2\n  swap1\n  pop\n  jump\t// out\n    /* \"#utility.yul\":417:539   */\ntag_11:\n    /* \"#utility.yul\":490:514   */\n  tag_19\n    /* \"#utility.yul\":508:513   */\n  dup2\n    /* \"#utility.yul\":490:514   */\n  tag_10\n  jump\t// in\ntag_19:\n    /* \"#utility.yul\":483:488   */\n  dup2\n    /* \"#utility.yul\":480:515   */\n  eq\n    /* \"#utility.yul\":470:533   */\n  tag_20\n  jumpi\n    /* \"#utility.yul\":529:530   */\n  0x00\n    /* \"#utility.yul\":526:527   */\n  dup1\n    /* \"#utility.yul\":519:531   */\n  revert\n    /* \"#utility.yul\":470:533   */\ntag_20:\n    /* \"#utility.yul\":417:539   */\n  pop\n  jump\t// out\n    /* \"#utility.yul\":545:688   */\ntag_12:\n    /* \"#utility.yul\":602:607   */\n  0x00\n    /* \"#utility.yul\":633:639   */\n  dup2\n    /* \"#utility.yul\":627:640   */\n  mload\n    /* \"#utility.yul\":618:640   */\n  swap1\n  pop\n    /* \"#utility.yul\":649:682   */\n  tag_22\n    /* \"#utility.yul\":676:681   */\n  dup2\n    /* \"#utility.yul\":649:682   */\n  tag_11\n  jump\t// in\ntag_22:\n    /* \"#utility.yul\":545:688   */\n  swap3\n  swap2\n  pop\n  pop\n  jump\t// out\n    /* \"#utility.yul\":694:1045   */\ntag_3:\n    /* \"#utility.yul\":764:770   */\n  0x00\n    /* \"#utility.yul\":813:815   */\n  0x20\n    /* \"#utility.yul\":801:810   */\n  dup3\n    /* \"#utility.yul\":792:799   */\n  dup5\n    /* \"#utility.yul\":788:811   */\n  sub\n    /* \"#utility.yul\":784:816   */\n  slt\n    /* \"#utility.yul\":781:900   */\n  iszero\n  tag_24\n  jumpi\n    /* \"#utility.yul\":819:898   */\n  tag_25\n  tag_8\n  jump\t// in\ntag_25:\n    /* \"#utility.yul\":781:900   */\ntag_24:\n    /* \"#utility.yul\":939:940   */\n  0x00\n    /* \"#utility.yul\":964:1028   */\n  tag_26\n    /* \"#utility.yul\":1020:1027   */\n  dup5\n    /* \"#utility.yul\":1011:1017   */\n  dup3\n    /* \"#utility.yul\":1000:1009   */\n  dup6\n    /* \"#utility.yul\":996:1018   */\n  add\n    /* \"#utility.yul\":964:1028   */\n  tag_12\n  jump\t// in\ntag_26:\n    /* \"#utility.yul\":954:1028   */\n  swap2\n  pop\n    /* \"#utility.yul\":910:1038   */\n  pop\n    /* \"#utility.yul\":694:1045   */\n  swap3\n  swap2\n  pop\n  pop\n  jump\t// out\n    /* \"contracts/2_RealEstatesmartcontract.sol\":67:833  contract RealEstateAggreement {... */\ntag_6:\n  dataSize(sub_0)\n  dup1\n  dataOffset(sub_0)\n  0x00\n  codecopy\n  0x00\n  return\nstop\n\nsub_0: assembly {\n        /* \"contracts/2_RealEstatesmartcontract.sol\":67:833  contract RealEstateAggreement {... */\n      mstore(0x40, 0x80)\n      callvalue\n      dup1\n      iszero\n      tag_1\n      jumpi\n      0x00\n      dup1\n      revert\n    tag_1:\n      pop\n      jumpi(tag_2, lt(calldatasize, 0x04))\n      shr(0xe0, calldataload(0x00))\n      dup1\n      0x1c93e151\n      eq\n      tag_3\n      jumpi\n      dup1\n      0x91b7f5ed\n      eq\n      tag_4\n      jumpi\n      dup1\n      0xa035b1fe\n      eq\n      tag_5\n      jumpi\n      dup1\n      0xaabd43c6\n      eq\n      tag_6\n      jumpi\n    tag_2:\n      0x00\n      dup1\n      revert\n        /* \"contracts/2_RealEstatesmartcontract.sol\":156:189  bool public sellerPaysClosingFees */\n    tag_3:\n      tag_7\n      tag_8\n      jump\t// in\n    tag_7:\n      mload(0x40)\n      tag_9\n      swap2\n      swap1\n      tag_10\n      jump\t// in\n    tag_9:\n      mload(0x40)\n      dup1\n      swap2\n      sub\n      swap1\n      return\n        /* \"contracts/2_RealEstatesmartcontract.sol\":328:489  function setPrice(uint256 _price) public onlyOwner {... */\n    tag_4:\n      tag_11\n      0x04\n      dup1\n      calldatasize\n      sub\n      dup2\n      add\n      swap1\n      tag_12\n      swap2\n      swap1\n      tag_13\n      jump\t// in\n    tag_12:\n      tag_14\n      jump\t// in\n    tag_11:\n      stop\n        /* \"contracts/2_RealEstatesmartcontract.sol\":130:150  uint256 public price */\n    tag_5:\n      tag_15\n      tag_16\n      jump\t// in\n    tag_15:\n      mload(0x40)\n      tag_17\n      swap2\n      swap1\n      tag_18\n      jump\t// in\n    tag_17:\n      mload(0x40)\n      dup1\n      swap2\n      sub\n      swap1\n      return\n        /* \"contracts/2_RealEstatesmartcontract.sol\":588:704  function setClosingFeeAgreement(bool _ownerPays) public onlyOwner{... */\n    tag_6:\n      tag_19\n      0x04\n      dup1\n      calldatasize\n      sub\n      dup2\n      add\n      swap1\n      tag_20\n      swap2\n      swap1\n      tag_21\n      jump\t// in\n    tag_20:\n      tag_22\n      jump\t// in\n    tag_19:\n      stop\n        /* \"contracts/2_RealEstatesmartcontract.sol\":156:189  bool public sellerPaysClosingFees */\n    tag_8:\n      0x02\n      0x00\n      swap1\n      sload\n      swap1\n      0x0100\n      exp\n      swap1\n      div\n      0xff\n      and\n      dup2\n      jump\t// out\n        /* \"contracts/2_RealEstatesmartcontract.sol\":328:489  function setPrice(uint256 _price) public onlyOwner {... */\n    tag_14:\n        /* \"contracts/2_RealEstatesmartcontract.sol\":759:769  msg.sender */\n      caller\n        /* \"contracts/2_RealEstatesmartcontract.sol\":750:769  owner == msg.sender */\n      0xffffffffffffffffffffffffffffffffffffffff\n      and\n        /* \"contracts/2_RealEstatesmartcontract.sol\":750:755  owner */\n      0x00\n      dup1\n      sload\n      swap1\n      0x0100\n      exp\n      swap1\n      div\n      0xffffffffffffffffffffffffffffffffffffffff\n      and\n        /* \"contracts/2_RealEstatesmartcontract.sol\":750:769  owner == msg.sender */\n      0xffffffffffffffffffffffffffffffffffffffff\n      and\n      eq\n        /* \"contracts/2_RealEstatesmartcontract.sol\":741:813  require (owner == msg.sender , \"only owner can update agreement terms.\") */\n      tag_24\n      jumpi\n      mload(0x40)\n      0x08c379a000000000000000000000000000000000000000000000000000000000\n      dup2\n      mstore\n      0x04\n      add\n      tag_25\n      swap1\n      tag_26\n      jump\t// in\n    tag_25:\n      mload(0x40)\n      dup1\n      swap2\n      sub\n      swap1\n      revert\n    tag_24:\n        /* \"contracts/2_RealEstatesmartcontract.sol\":406:416  msg.sender */\n      caller\n        /* \"contracts/2_RealEstatesmartcontract.sol\":397:416  owner == msg.sender */\n      0xffffffffffffffffffffffffffffffffffffffff\n      and\n        /* \"contracts/2_RealEstatesmartcontract.sol\":397:402  owner */\n      0x00\n      dup1\n      sload\n      swap1\n      0x0100\n      exp\n      swap1\n      div\n      0xffffffffffffffffffffffffffffffffffffffff\n      and\n        /* \"contracts/2_RealEstatesmartcontract.sol\":397:416  owner == msg.sender */\n      0xffffffffffffffffffffffffffffffffffffffff\n      and\n      eq\n        /* \"contracts/2_RealEstatesmartcontract.sol\":389:458  require(owner == msg.sender, \"Only owner can update agrement terms.\") */\n      tag_28\n      jumpi\n      mload(0x40)\n      0x08c379a000000000000000000000000000000000000000000000000000000000\n      dup2\n      mstore\n      0x04\n      add\n      tag_29\n      swap1\n      tag_30\n      jump\t// in\n    tag_29:\n      mload(0x40)\n      dup1\n      swap2\n      sub\n      swap1\n      revert\n    tag_28:\n        /* \"contracts/2_RealEstatesmartcontract.sol\":476:482  _price */\n      dup1\n        /* \"contracts/2_RealEstatesmartcontract.sol\":468:473  price */\n      0x01\n        /* \"contracts/2_RealEstatesmartcontract.sol\":468:482  price = _price */\n      dup2\n      swap1\n      sstore\n      pop\n        /* \"contracts/2_RealEstatesmartcontract.sol\":328:489  function setPrice(uint256 _price) public onlyOwner {... */\n      pop\n      jump\t// out\n        /* \"contracts/2_RealEstatesmartcontract.sol\":130:150  uint256 public price */\n    tag_16:\n      sload(0x01)\n      dup2\n      jump\t// out\n        /* \"contracts/2_RealEstatesmartcontract.sol\":588:704  function setClosingFeeAgreement(bool _ownerPays) public onlyOwner{... */\n    tag_22:\n        /* \"contracts/2_RealEstatesmartcontract.sol\":759:769  msg.sender */\n      caller\n        /* \"contracts/2_RealEstatesmartcontract.sol\":750:769  owner == msg.sender */\n      0xffffffffffffffffffffffffffffffffffffffff\n      and\n        /* \"contracts/2_RealEstatesmartcontract.sol\":750:755  owner */\n      0x00\n      dup1\n      sload\n      swap1\n      0x0100\n      exp\n      swap1\n      div\n      0xffffffffffffffffffffffffffffffffffffffff\n      and\n        /* \"contracts/2_RealEstatesmartcontract.sol\":750:769  owner == msg.sender */\n      0xffffffffffffffffffffffffffffffffffffffff\n      and\n      eq\n        /* \"contracts/2_RealEstatesmartcontract.sol\":741:813  require (owner == msg.sender , \"only owner can update agreement terms.\") */\n      tag_32\n      jumpi\n      mload(0x40)\n      0x08c379a000000000000000000000000000000000000000000000000000000000\n      dup2\n      mstore\n      0x04\n      add\n      tag_33\n      swap1\n      tag_26\n      jump\t// in\n    tag_33:\n      mload(0x40)\n      dup1\n      swap2\n      sub\n      swap1\n      revert\n    tag_32:\n        /* \"contracts/2_RealEstatesmartcontract.sol\":687:697  _ownerPays */\n      dup1\n        /* \"contracts/2_RealEstatesmartcontract.sol\":663:684  sellerPaysClosingFees */\n      0x02\n      0x00\n        /* \"contracts/2_RealEstatesmartcontract.sol\":663:697  sellerPaysClosingFees = _ownerPays */\n      0x0100\n      exp\n      dup2\n      sload\n      dup2\n      0xff\n      mul\n      not\n      and\n      swap1\n      dup4\n      iszero\n      iszero\n      mul\n      or\n      swap1\n      sstore\n      pop\n        /* \"contracts/2_RealEstatesmartcontract.sol\":588:704  function setClosingFeeAgreement(bool _ownerPays) public onlyOwner{... */\n      pop\n      jump\t// out\n        /* \"#utility.yul\":7:97   */\n    tag_35:\n        /* \"#utility.yul\":41:48   */\n      0x00\n        /* \"#utility.yul\":84:89   */\n      dup2\n        /* \"#utility.yul\":77:90   */\n      iszero\n        /* \"#utility.yul\":70:91   */\n      iszero\n        /* \"#utility.yul\":59:91   */\n      swap1\n      pop\n        /* \"#utility.yul\":7:97   */\n      swap2\n      swap1\n      pop\n      jump\t// out\n        /* \"#utility.yul\":103:212   */\n    tag_36:\n        /* \"#utility.yul\":184:205   */\n      tag_54\n        /* \"#utility.yul\":199:204   */\n      dup2\n        /* \"#utility.yul\":184:205   */\n      tag_35\n      jump\t// in\n    tag_54:\n        /* \"#utility.yul\":179:182   */\n      dup3\n        /* \"#utility.yul\":172:206   */\n      mstore\n        /* \"#utility.yul\":103:212   */\n      pop\n      pop\n      jump\t// out\n        /* \"#utility.yul\":218:428   */\n    tag_10:\n        /* \"#utility.yul\":305:309   */\n      0x00\n        /* \"#utility.yul\":343:345   */\n      0x20\n        /* \"#utility.yul\":332:341   */\n      dup3\n        /* \"#utility.yul\":328:346   */\n      add\n        /* \"#utility.yul\":320:346   */\n      swap1\n      pop\n        /* \"#utility.yul\":356:421   */\n      tag_56\n        /* \"#utility.yul\":418:419   */\n      0x00\n        /* \"#utility.yul\":407:416   */\n      dup4\n        /* \"#utility.yul\":403:420   */\n      add\n        /* \"#utility.yul\":394:400   */\n      dup5\n        /* \"#utility.yul\":356:421   */\n      tag_36\n      jump\t// in\n    tag_56:\n        /* \"#utility.yul\":218:428   */\n      swap3\n      swap2\n      pop\n      pop\n      jump\t// out\n        /* \"#utility.yul\":515:632   */\n    tag_38:\n        /* \"#utility.yul\":624:625   */\n      0x00\n        /* \"#utility.yul\":621:622   */\n      dup1\n        /* \"#utility.yul\":614:626   */\n      revert\n        /* \"#utility.yul\":761:838   */\n    tag_40:\n        /* \"#utility.yul\":798:805   */\n      0x00\n        /* \"#utility.yul\":827:832   */\n      dup2\n        /* \"#utility.yul\":816:832   */\n      swap1\n      pop\n        /* \"#utility.yul\":761:838   */\n      swap2\n      swap1\n      pop\n      jump\t// out\n        /* \"#utility.yul\":844:966   */\n    tag_41:\n        /* \"#utility.yul\":917:941   */\n      tag_62\n        /* \"#utility.yul\":935:940   */\n      dup2\n        /* \"#utility.yul\":917:941   */\n      tag_40\n      jump\t// in\n    tag_62:\n        /* \"#utility.yul\":910:915   */\n      dup2\n        /* \"#utility.yul\":907:942   */\n      eq\n        /* \"#utility.yul\":897:960   */\n      tag_63\n      jumpi\n        /* \"#utility.yul\":956:957   */\n      0x00\n        /* \"#utility.yul\":953:954   */\n      dup1\n        /* \"#utility.yul\":946:958   */\n      revert\n        /* \"#utility.yul\":897:960   */\n    tag_63:\n        /* \"#utility.yul\":844:966   */\n      pop\n      jump\t// out\n        /* \"#utility.yul\":972:1111   */\n    tag_42:\n        /* \"#utility.yul\":1018:1023   */\n      0x00\n        /* \"#utility.yul\":1056:1062   */\n      dup2\n        /* \"#utility.yul\":1043:1063   */\n      calldataload\n        /* \"#utility.yul\":1034:1063   */\n      swap1\n      pop\n        /* \"#utility.yul\":1072:1105   */\n      tag_65\n        /* \"#utility.yul\":1099:1104   */\n      dup2\n        /* \"#utility.yul\":1072:1105   */\n      tag_41\n      jump\t// in\n    tag_65:\n        /* \"#utility.yul\":972:1111   */\n      swap3\n      swap2\n      pop\n      pop\n      jump\t// out\n        /* \"#utility.yul\":1117:1446   */\n    tag_13:\n        /* \"#utility.yul\":1176:1182   */\n      0x00\n        /* \"#utility.yul\":1225:1227   */\n      0x20\n        /* \"#utility.yul\":1213:1222   */\n      dup3\n        /* \"#utility.yul\":1204:1211   */\n      dup5\n        /* \"#utility.yul\":1200:1223   */\n      sub\n        /* \"#utility.yul\":1196:1228   */\n      slt\n        /* \"#utility.yul\":1193:1312   */\n      iszero\n      tag_67\n      jumpi\n        /* \"#utility.yul\":1231:1310   */\n      tag_68\n      tag_38\n      jump\t// in\n    tag_68:\n        /* \"#utility.yul\":1193:1312   */\n    tag_67:\n        /* \"#utility.yul\":1351:1352   */\n      0x00\n        /* \"#utility.yul\":1376:1429   */\n      tag_69\n        /* \"#utility.yul\":1421:1428   */\n      dup5\n        /* \"#utility.yul\":1412:1418   */\n      dup3\n        /* \"#utility.yul\":1401:1410   */\n      dup6\n        /* \"#utility.yul\":1397:1419   */\n      add\n        /* \"#utility.yul\":1376:1429   */\n      tag_42\n      jump\t// in\n    tag_69:\n        /* \"#utility.yul\":1366:1429   */\n      swap2\n      pop\n        /* \"#utility.yul\":1322:1439   */\n      pop\n        /* \"#utility.yul\":1117:1446   */\n      swap3\n      swap2\n      pop\n      pop\n      jump\t// out\n        /* \"#utility.yul\":1452:1570   */\n    tag_43:\n        /* \"#utility.yul\":1539:1563   */\n      tag_71\n        /* \"#utility.yul\":1557:1562   */\n      dup2\n        /* \"#utility.yul\":1539:1563   */\n      tag_40\n      jump\t// in\n    tag_71:\n        /* \"#utility.yul\":1534:1537   */\n      dup3\n        /* \"#utility.yul\":1527:1564   */\n      mstore\n        /* \"#utility.yul\":1452:1570   */\n      pop\n      pop\n      jump\t// out\n        /* \"#utility.yul\":1576:1798   */\n    tag_18:\n        /* \"#utility.yul\":1669:1673   */\n      0x00\n        /* \"#utility.yul\":1707:1709   */\n      0x20\n        /* \"#utility.yul\":1696:1705   */\n      dup3\n        /* \"#utility.yul\":1692:1710   */\n      add\n        /* \"#utility.yul\":1684:1710   */\n      swap1\n      pop\n        /* \"#utility.yul\":1720:1791   */\n      tag_73\n        /* \"#utility.yul\":1788:1789   */\n      0x00\n        /* \"#utility.yul\":1777:1786   */\n      dup4\n        /* \"#utility.yul\":1773:1790   */\n      add\n        /* \"#utility.yul\":1764:1770   */\n      dup5\n        /* \"#utility.yul\":1720:1791   */\n      tag_43\n      jump\t// in\n    tag_73:\n        /* \"#utility.yul\":1576:1798   */\n      swap3\n      swap2\n      pop\n      pop\n      jump\t// out\n        /* \"#utility.yul\":1804:1920   */\n    tag_44:\n        /* \"#utility.yul\":1874:1895   */\n      tag_75\n        /* \"#utility.yul\":1889:1894   */\n      dup2\n        /* \"#utility.yul\":1874:1895   */\n      tag_35\n      jump\t// in\n    tag_75:\n        /* \"#utility.yul\":1867:1872   */\n      dup2\n        /* \"#utility.yul\":1864:1896   */\n      eq\n        /* \"#utility.yul\":1854:1914   */\n      tag_76\n      jumpi\n        /* \"#utility.yul\":1910:1911   */\n      0x00\n        /* \"#utility.yul\":1907:1908   */\n      dup1\n        /* \"#utility.yul\":1900:1912   */\n      revert\n        /* \"#utility.yul\":1854:1914   */\n    tag_76:\n        /* \"#utility.yul\":1804:1920   */\n      pop\n      jump\t// out\n        /* \"#utility.yul\":1926:2059   */\n    tag_45:\n        /* \"#utility.yul\":1969:1974   */\n      0x00\n        /* \"#utility.yul\":2007:2013   */\n      dup2\n        /* \"#utility.yul\":1994:2014   */\n      calldataload\n        /* \"#utility.yul\":1985:2014   */\n      swap1\n      pop\n        /* \"#utility.yul\":2023:2053   */\n      tag_78\n        /* \"#utility.yul\":2047:2052   */\n      dup2\n        /* \"#utility.yul\":2023:2053   */\n      tag_44\n      jump\t// in\n    tag_78:\n        /* \"#utility.yul\":1926:2059   */\n      swap3\n      swap2\n      pop\n      pop\n      jump\t// out\n        /* \"#utility.yul\":2065:2388   */\n    tag_21:\n        /* \"#utility.yul\":2121:2127   */\n      0x00\n        /* \"#utility.yul\":2170:2172   */\n      0x20\n        /* \"#utility.yul\":2158:2167   */\n      dup3\n        /* \"#utility.yul\":2149:2156   */\n      dup5\n        /* \"#utility.yul\":2145:2168   */\n      sub\n        /* \"#utility.yul\":2141:2173   */\n      slt\n        /* \"#utility.yul\":2138:2257   */\n      iszero\n      tag_80\n      jumpi\n        /* \"#utility.yul\":2176:2255   */\n      tag_81\n      tag_38\n      jump\t// in\n    tag_81:\n        /* \"#utility.yul\":2138:2257   */\n    tag_80:\n        /* \"#utility.yul\":2296:2297   */\n      0x00\n        /* \"#utility.yul\":2321:2371   */\n      tag_82\n        /* \"#utility.yul\":2363:2370   */\n      dup5\n        /* \"#utility.yul\":2354:2360   */\n      dup3\n        /* \"#utility.yul\":2343:2352   */\n      dup6\n        /* \"#utility.yul\":2339:2361   */\n      add\n        /* \"#utility.yul\":2321:2371   */\n      tag_45\n      jump\t// in\n    tag_82:\n        /* \"#utility.yul\":2311:2371   */\n      swap2\n      pop\n        /* \"#utility.yul\":2267:2381   */\n      pop\n        /* \"#utility.yul\":2065:2388   */\n      swap3\n      swap2\n      pop\n      pop\n      jump\t// out\n        /* \"#utility.yul\":2394:2563   */\n    tag_46:\n        /* \"#utility.yul\":2478:2489   */\n      0x00\n        /* \"#utility.yul\":2512:2518   */\n      dup3\n        /* \"#utility.yul\":2507:2510   */\n      dup3\n        /* \"#utility.yul\":2500:2519   */\n      mstore\n        /* \"#utility.yul\":2552:2556   */\n      0x20\n        /* \"#utility.yul\":2547:2550   */\n      dup3\n        /* \"#utility.yul\":2543:2557   */\n      add\n        /* \"#utility.yul\":2528:2557   */\n      swap1\n      pop\n        /* \"#utility.yul\":2394:2563   */\n      swap3\n      swap2\n      pop\n      pop\n      jump\t// out\n        /* \"#utility.yul\":2569:2794   */\n    tag_47:\n        /* \"#utility.yul\":2709:2743   */\n      0x6f6e6c79206f776e65722063616e207570646174652061677265656d656e7420\n        /* \"#utility.yul\":2705:2706   */\n      0x00\n        /* \"#utility.yul\":2697:2703   */\n      dup3\n        /* \"#utility.yul\":2693:2707   */\n      add\n        /* \"#utility.yul\":2686:2744   */\n      mstore\n        /* \"#utility.yul\":2778:2786   */\n      0x7465726d732e0000000000000000000000000000000000000000000000000000\n        /* \"#utility.yul\":2773:2775   */\n      0x20\n        /* \"#utility.yul\":2765:2771   */\n      dup3\n        /* \"#utility.yul\":2761:2776   */\n      add\n        /* \"#utility.yul\":2754:2787   */\n      mstore\n        /* \"#utility.yul\":2569:2794   */\n      pop\n      jump\t// out\n        /* \"#utility.yul\":2800:3166   */\n    tag_48:\n        /* \"#utility.yul\":2942:2945   */\n      0x00\n        /* \"#utility.yul\":2963:3030   */\n      tag_86\n        /* \"#utility.yul\":3027:3029   */\n      0x26\n        /* \"#utility.yul\":3022:3025   */\n      dup4\n        /* \"#utility.yul\":2963:3030   */\n      tag_46\n      jump\t// in\n    tag_86:\n        /* \"#utility.yul\":2956:3030   */\n      swap2\n      pop\n        /* \"#utility.yul\":3039:3132   */\n      tag_87\n        /* \"#utility.yul\":3128:3131   */\n      dup3\n        /* \"#utility.yul\":3039:3132   */\n      tag_47\n      jump\t// in\n    tag_87:\n        /* \"#utility.yul\":3157:3159   */\n      0x40\n        /* \"#utility.yul\":3152:3155   */\n      dup3\n        /* \"#utility.yul\":3148:3160   */\n      add\n        /* \"#utility.yul\":3141:3160   */\n      swap1\n      pop\n        /* \"#utility.yul\":2800:3166   */\n      swap2\n      swap1\n      pop\n      jump\t// out\n        /* \"#utility.yul\":3172:3591   */\n    tag_26:\n        /* \"#utility.yul\":3338:3342   */\n      0x00\n        /* \"#utility.yul\":3376:3378   */\n      0x20\n        /* \"#utility.yul\":3365:3374   */\n      dup3\n        /* \"#utility.yul\":3361:3379   */\n      add\n        /* \"#utility.yul\":3353:3379   */\n      swap1\n      pop\n        /* \"#utility.yul\":3425:3434   */\n      dup2\n        /* \"#utility.yul\":3419:3423   */\n      dup2\n        /* \"#utility.yul\":3415:3435   */\n      sub\n        /* \"#utility.yul\":3411:3412   */\n      0x00\n        /* \"#utility.yul\":3400:3409   */\n      dup4\n        /* \"#utility.yul\":3396:3413   */\n      add\n        /* \"#utility.yul\":3389:3436   */\n      mstore\n        /* \"#utility.yul\":3453:3584   */\n      tag_89\n        /* \"#utility.yul\":3579:3583   */\n      dup2\n        /* \"#utility.yul\":3453:3584   */\n      tag_48\n      jump\t// in\n    tag_89:\n        /* \"#utility.yul\":3445:3584   */\n      swap1\n      pop\n        /* \"#utility.yul\":3172:3591   */\n      swap2\n      swap1\n      pop\n      jump\t// out\n        /* \"#utility.yul\":3597:3821   */\n    tag_49:\n        /* \"#utility.yul\":3737:3771   */\n      0x4f6e6c79206f776e65722063616e2075706461746520616772656d656e742074\n        /* \"#utility.yul\":3733:3734   */\n      0x00\n        /* \"#utility.yul\":3725:3731   */\n      dup3\n        /* \"#utility.yul\":3721:3735   */\n      add\n        /* \"#utility.yul\":3714:3772   */\n      mstore\n        /* \"#utility.yul\":3806:3813   */\n      0x65726d732e000000000000000000000000000000000000000000000000000000\n        /* \"#utility.yul\":3801:3803   */\n      0x20\n        /* \"#utility.yul\":3793:3799   */\n      dup3\n        /* \"#utility.yul\":3789:3804   */\n      add\n        /* \"#utility.yul\":3782:3814   */\n      mstore\n        /* \"#utility.yul\":3597:3821   */\n      pop\n      jump\t// out\n        /* \"#utility.yul\":3827:4193   */\n    tag_50:\n        /* \"#utility.yul\":3969:3972   */\n      0x00\n        /* \"#utility.yul\":3990:4057   */\n      tag_92\n        /* \"#utility.yul\":4054:4056   */\n      0x25\n        /* \"#utility.yul\":4049:4052   */\n      dup4\n        /* \"#utility.yul\":3990:4057   */\n      tag_46\n      jump\t// in\n    tag_92:\n        /* \"#utility.yul\":3983:4057   */\n      swap2\n      pop\n        /* \"#utility.yul\":4066:4159   */\n      tag_93\n        /* \"#utility.yul\":4155:4158   */\n      dup3\n        /* \"#utility.yul\":4066:4159   */\n      tag_49\n      jump\t// in\n    tag_93:\n        /* \"#utility.yul\":4184:4186   */\n      0x40\n        /* \"#utility.yul\":4179:4182   */\n      dup3\n        /* \"#utility.yul\":4175:4187   */\n      add\n        /* \"#utility.yul\":4168:4187   */\n      swap1\n      pop\n        /* \"#utility.yul\":3827:4193   */\n      swap2\n      swap1\n      pop\n      jump\t// out\n        /* \"#utility.yul\":4199:4618   */\n    tag_30:\n        /* \"#utility.yul\":4365:4369   */\n      0x00\n        /* \"#utility.yul\":4403:4405   */\n      0x20\n        /* \"#utility.yul\":4392:4401   */\n      dup3\n        /* \"#utility.yul\":4388:4406   */\n      add\n        /* \"#utility.yul\":4380:4406   */\n      swap1\n      pop\n        /* \"#utility.yul\":4452:4461   */\n      dup2\n        /* \"#utility.yul\":4446:4450   */\n      dup2\n        /* \"#utility.yul\":4442:4462   */\n      sub\n        /* \"#utility.yul\":4438:4439   */\n      0x00\n        /* \"#utility.yul\":4427:4436   */\n      dup4\n        /* \"#utility.yul\":4423:4440   */\n      add\n        /* \"#utility.yul\":4416:4463   */\n      mstore\n        /* \"#utility.yul\":4480:4611   */\n      tag_95\n        /* \"#utility.yul\":4606:4610   */\n      dup2\n        /* \"#utility.yul\":4480:4611   */\n      tag_50\n      jump\t// in\n    tag_95:\n        /* \"#utility.yul\":4472:4611   */\n      swap1\n      pop\n        /* \"#utility.yul\":4199:4618   */\n      swap2\n      swap1\n      pop\n      jump\t// out\n\n    auxdata: 0xa264697066735822122021009467a8e404a2566823e0daf4181d92e91c49e7f56ab17c29f29d2283498564736f6c634300080f0033\n}\n",
				"bytecode": {
					"linkReferences": {},
					"object": "608060405234801561001057600080fd5b5060405161064c38038061064c833981810160405281019061003291906100d5565b336000806101000a81548173ffffffffffffffffffffffffffffffffffffffff021916908373ffffffffffffffffffffffffffffffffffffffff160217905550806001819055506000600260006101000a81548160ff02191690831515021790555050610102565b600080fd5b6000819050919050565b6100b28161009f565b81146100bd57600080fd5b50565b6000815190506100cf816100a9565b92915050565b6000602082840312156100eb576100ea61009a565b5b60006100f9848285016100c0565b91505092915050565b61053b806101116000396000f3fe608060405234801561001057600080fd5b506004361061004c5760003560e01c80631c93e1511461005157806391b7f5ed1461006f578063a035b1fe1461008b578063aabd43c6146100a9575b600080fd5b6100596100c5565b60405161006691906102ca565b60405180910390f35b61008960048036038101906100849190610320565b6100d8565b005b6100936101fe565b6040516100a0919061035c565b60405180910390f35b6100c360048036038101906100be91906103a3565b610204565b005b600260009054906101000a900460ff1681565b3373ffffffffffffffffffffffffffffffffffffffff1660008054906101000a900473ffffffffffffffffffffffffffffffffffffffff1673ffffffffffffffffffffffffffffffffffffffff1614610166576040517f08c379a000000000000000000000000000000000000000000000000000000000815260040161015d90610453565b60405180910390fd5b3373ffffffffffffffffffffffffffffffffffffffff1660008054906101000a900473ffffffffffffffffffffffffffffffffffffffff1673ffffffffffffffffffffffffffffffffffffffff16146101f4576040517f08c379a00000000000000000000000000000000000000000000000000000000081526004016101eb906104e5565b60405180910390fd5b8060018190555050565b60015481565b3373ffffffffffffffffffffffffffffffffffffffff1660008054906101000a900473ffffffffffffffffffffffffffffffffffffffff1673ffffffffffffffffffffffffffffffffffffffff1614610292576040517f08c379a000000000000000000000000000000000000000000000000000000000815260040161028990610453565b60405180910390fd5b80600260006101000a81548160ff02191690831515021790555050565b60008115159050919050565b6102c4816102af565b82525050565b60006020820190506102df60008301846102bb565b92915050565b600080fd5b6000819050919050565b6102fd816102ea565b811461030857600080fd5b50565b60008135905061031a816102f4565b92915050565b600060208284031215610336576103356102e5565b5b60006103448482850161030b565b91505092915050565b610356816102ea565b82525050565b6000602082019050610371600083018461034d565b92915050565b610380816102af565b811461038b57600080fd5b50565b60008135905061039d81610377565b92915050565b6000602082840312156103b9576103b86102e5565b5b60006103c78482850161038e565b91505092915050565b600082825260208201905092915050565b7f6f6e6c79206f776e65722063616e207570646174652061677265656d656e742060008201527f7465726d732e0000000000000000000000000000000000000000000000000000602082015250565b600061043d6026836103d0565b9150610448826103e1565b604082019050919050565b6000602082019050818103600083015261046c81610430565b9050919050565b7f4f6e6c79206f776e65722063616e2075706461746520616772656d656e74207460008201527f65726d732e000000000000000000000000000000000000000000000000000000602082015250565b60006104cf6025836103d0565b91506104da82610473565b604082019050919050565b600060208201905081810360008301526104fe816104c2565b905091905056fea264697066735822122021009467a8e404a2566823e0daf4181d92e91c49e7f56ab17c29f29d2283498564736f6c634300080f0033",
					"opcodes": "PUSH1 0x80 PUSH1 0x40 MSTORE CALLVALUE DUP1 ISZERO PUSH2 0x10 JUMPI PUSH1 0x0 DUP1 REVERT JUMPDEST POP PUSH1 0x40 MLOAD PUSH2 0x64C CODESIZE SUB DUP1 PUSH2 0x64C DUP4 CODECOPY DUP2 DUP2 ADD PUSH1 0x40 MSTORE DUP2 ADD SWAP1 PUSH2 0x32 SWAP2 SWAP1 PUSH2 0xD5 JUMP JUMPDEST CALLER PUSH1 0x0 DUP1 PUSH2 0x100 EXP DUP2 SLOAD DUP2 PUSH20 0xFFFFFFFFFFFFFFFFFFFFFFFFFFFFFFFFFFFFFFFF MUL NOT AND SWAP1 DUP4 PUSH20 0xFFFFFFFFFFFFFFFFFFFFFFFFFFFFFFFFFFFFFFFF AND MUL OR SWAP1 SSTORE POP DUP1 PUSH1 0x1 DUP2 SWAP1 SSTORE POP PUSH1 0x0 PUSH1 0x2 PUSH1 0x0 PUSH2 0x100 EXP DUP2 SLOAD DUP2 PUSH1 0xFF MUL NOT AND SWAP1 DUP4 ISZERO ISZERO MUL OR SWAP1 SSTORE POP POP PUSH2 0x102 JUMP JUMPDEST PUSH1 0x0 DUP1 REVERT JUMPDEST PUSH1 0x0 DUP2 SWAP1 POP SWAP2 SWAP1 POP JUMP JUMPDEST PUSH2 0xB2 DUP2 PUSH2 0x9F JUMP JUMPDEST DUP2 EQ PUSH2 0xBD JUMPI PUSH1 0x0 DUP1 REVERT JUMPDEST POP JUMP JUMPDEST PUSH1 0x0 DUP2 MLOAD SWAP1 POP PUSH2 0xCF DUP2 PUSH2 0xA9 JUMP JUMPDEST SWAP3 SWAP2 POP POP JUMP JUMPDEST PUSH1 0x0 PUSH1 0x20 DUP3 DUP5 SUB SLT ISZERO PUSH2 0xEB JUMPI PUSH2 0xEA PUSH2 0x9A JUMP JUMPDEST JUMPDEST PUSH1 0x0 PUSH2 0xF9 DUP5 DUP3 DUP6 ADD PUSH2 0xC0 JUMP JUMPDEST SWAP2 POP POP SWAP3 SWAP2 POP POP JUMP JUMPDEST PUSH2 0x53B DUP1 PUSH2 0x111 PUSH1 0x0 CODECOPY PUSH1 0x0 RETURN INVALID PUSH1 0x80 PUSH1 0x40 MSTORE CALLVALUE DUP1 ISZERO PUSH2 0x10 JUMPI PUSH1 0x0 DUP1 REVERT JUMPDEST POP PUSH1 0x4 CALLDATASIZE LT PUSH2 0x4C JUMPI PUSH1 0x0 CALLDATALOAD PUSH1 0xE0 SHR DUP1 PUSH4 0x1C93E151 EQ PUSH2 0x51 JUMPI DUP1 PUSH4 0x91B7F5ED EQ PUSH2 0x6F JUMPI DUP1 PUSH4 0xA035B1FE EQ PUSH2 0x8B JUMPI DUP1 PUSH4 0xAABD43C6 EQ PUSH2 0xA9 JUMPI JUMPDEST PUSH1 0x0 DUP1 REVERT JUMPDEST PUSH2 0x59 PUSH2 0xC5 JUMP JUMPDEST PUSH1 0x40 MLOAD PUSH2 0x66 SWAP2 SWAP1 PUSH2 0x2CA JUMP JUMPDEST PUSH1 0x40 MLOAD DUP1 SWAP2 SUB SWAP1 RETURN JUMPDEST PUSH2 0x89 PUSH1 0x4 DUP1 CALLDATASIZE SUB DUP2 ADD SWAP1 PUSH2 0x84 SWAP2 SWAP1 PUSH2 0x320 JUMP JUMPDEST PUSH2 0xD8 JUMP JUMPDEST STOP JUMPDEST PUSH2 0x93 PUSH2 0x1FE JUMP JUMPDEST PUSH1 0x40 MLOAD PUSH2 0xA0 SWAP2 SWAP1 PUSH2 0x35C JUMP JUMPDEST PUSH1 0x40 MLOAD DUP1 SWAP2 SUB SWAP1 RETURN JUMPDEST PUSH2 0xC3 PUSH1 0x4 DUP1 CALLDATASIZE SUB DUP2 ADD SWAP1 PUSH2 0xBE SWAP2 SWAP1 PUSH2 0x3A3 JUMP JUMPDEST PUSH2 0x204 JUMP JUMPDEST STOP JUMPDEST PUSH1 0x2 PUSH1 0x0 SWAP1 SLOAD SWAP1 PUSH2 0x100 EXP SWAP1 DIV PUSH1 0xFF AND DUP2 JUMP JUMPDEST CALLER PUSH20 0xFFFFFFFFFFFFFFFFFFFFFFFFFFFFFFFFFFFFFFFF AND PUSH1 0x0 DUP1 SLOAD SWAP1 PUSH2 0x100 EXP SWAP1 DIV PUSH20 0xFFFFFFFFFFFFFFFFFFFFFFFFFFFFFFFFFFFFFFFF AND PUSH20 0xFFFFFFFFFFFFFFFFFFFFFFFFFFFFFFFFFFFFFFFF AND EQ PUSH2 0x166 JUMPI PUSH1 0x40 MLOAD PUSH32 0x8C379A000000000000000000000000000000000000000000000000000000000 DUP2 MSTORE PUSH1 0x4 ADD PUSH2 0x15D SWAP1 PUSH2 0x453 JUMP JUMPDEST PUSH1 0x40 MLOAD DUP1 SWAP2 SUB SWAP1 REVERT JUMPDEST CALLER PUSH20 0xFFFFFFFFFFFFFFFFFFFFFFFFFFFFFFFFFFFFFFFF AND PUSH1 0x0 DUP1 SLOAD SWAP1 PUSH2 0x100 EXP SWAP1 DIV PUSH20 0xFFFFFFFFFFFFFFFFFFFFFFFFFFFFFFFFFFFFFFFF AND PUSH20 0xFFFFFFFFFFFFFFFFFFFFFFFFFFFFFFFFFFFFFFFF AND EQ PUSH2 0x1F4 JUMPI PUSH1 0x40 MLOAD PUSH32 0x8C379A000000000000000000000000000000000000000000000000000000000 DUP2 MSTORE PUSH1 0x4 ADD PUSH2 0x1EB SWAP1 PUSH2 0x4E5 JUMP JUMPDEST PUSH1 0x40 MLOAD DUP1 SWAP2 SUB SWAP1 REVERT JUMPDEST DUP1 PUSH1 0x1 DUP2 SWAP1 SSTORE POP POP JUMP JUMPDEST PUSH1 0x1 SLOAD DUP2 JUMP JUMPDEST CALLER PUSH20 0xFFFFFFFFFFFFFFFFFFFFFFFFFFFFFFFFFFFFFFFF AND PUSH1 0x0 DUP1 SLOAD SWAP1 PUSH2 0x100 EXP SWAP1 DIV PUSH20 0xFFFFFFFFFFFFFFFFFFFFFFFFFFFFFFFFFFFFFFFF AND PUSH20 0xFFFFFFFFFFFFFFFFFFFFFFFFFFFFFFFFFFFFFFFF AND EQ PUSH2 0x292 JUMPI PUSH1 0x40 MLOAD PUSH32 0x8C379A000000000000000000000000000000000000000000000000000000000 DUP2 MSTORE PUSH1 0x4 ADD PUSH2 0x289 SWAP1 PUSH2 0x453 JUMP JUMPDEST PUSH1 0x40 MLOAD DUP1 SWAP2 SUB SWAP1 REVERT JUMPDEST DUP1 PUSH1 0x2 PUSH1 0x0 PUSH2 0x100 EXP DUP2 SLOAD DUP2 PUSH1 0xFF MUL NOT AND SWAP1 DUP4 ISZERO ISZERO MUL OR SWAP1 SSTORE POP POP JUMP JUMPDEST PUSH1 0x0 DUP2 ISZERO ISZERO SWAP1 POP SWAP2 SWAP1 POP JUMP JUMPDEST PUSH2 0x2C4 DUP2 PUSH2 0x2AF JUMP JUMPDEST DUP3 MSTORE POP POP JUMP JUMPDEST PUSH1 0x0 PUSH1 0x20 DUP3 ADD SWAP1 POP PUSH2 0x2DF PUSH1 0x0 DUP4 ADD DUP5 PUSH2 0x2BB JUMP JUMPDEST SWAP3 SWAP2 POP POP JUMP JUMPDEST PUSH1 0x0 DUP1 REVERT JUMPDEST PUSH1 0x0 DUP2 SWAP1 POP SWAP2 SWAP1 POP JUMP JUMPDEST PUSH2 0x2FD DUP2 PUSH2 0x2EA JUMP JUMPDEST DUP2 EQ PUSH2 0x308 JUMPI PUSH1 0x0 DUP1 REVERT JUMPDEST POP JUMP JUMPDEST PUSH1 0x0 DUP2 CALLDATALOAD SWAP1 POP PUSH2 0x31A DUP2 PUSH2 0x2F4 JUMP JUMPDEST SWAP3 SWAP2 POP POP JUMP JUMPDEST PUSH1 0x0 PUSH1 0x20 DUP3 DUP5 SUB SLT ISZERO PUSH2 0x336 JUMPI PUSH2 0x335 PUSH2 0x2E5 JUMP JUMPDEST JUMPDEST PUSH1 0x0 PUSH2 0x344 DUP5 DUP3 DUP6 ADD PUSH2 0x30B JUMP JUMPDEST SWAP2 POP POP SWAP3 SWAP2 POP POP JUMP JUMPDEST PUSH2 0x356 DUP2 PUSH2 0x2EA JUMP JUMPDEST DUP3 MSTORE POP POP JUMP JUMPDEST PUSH1 0x0 PUSH1 0x20 DUP3 ADD SWAP1 POP PUSH2 0x371 PUSH1 0x0 DUP4 ADD DUP5 PUSH2 0x34D JUMP JUMPDEST SWAP3 SWAP2 POP POP JUMP JUMPDEST PUSH2 0x380 DUP2 PUSH2 0x2AF JUMP JUMPDEST DUP2 EQ PUSH2 0x38B JUMPI PUSH1 0x0 DUP1 REVERT JUMPDEST POP JUMP JUMPDEST PUSH1 0x0 DUP2 CALLDATALOAD SWAP1 POP PUSH2 0x39D DUP2 PUSH2 0x377 JUMP JUMPDEST SWAP3 SWAP2 POP POP JUMP JUMPDEST PUSH1 0x0 PUSH1 0x20 DUP3 DUP5 SUB SLT ISZERO PUSH2 0x3B9 JUMPI PUSH2 0x3B8 PUSH2 0x2E5 JUMP JUMPDEST JUMPDEST PUSH1 0x0 PUSH2 0x3C7 DUP5 DUP3 DUP6 ADD PUSH2 0x38E JUMP JUMPDEST SWAP2 POP POP SWAP3 SWAP2 POP POP JUMP JUMPDEST PUSH1 0x0 DUP3 DUP3 MSTORE PUSH1 0x20 DUP3 ADD SWAP1 POP SWAP3 SWAP2 POP POP JUMP JUMPDEST PUSH32 0x6F6E6C79206F776E65722063616E207570646174652061677265656D656E7420 PUSH1 0x0 DUP3 ADD MSTORE PUSH32 0x7465726D732E0000000000000000000000000000000000000000000000000000 PUSH1 0x20 DUP3 ADD MSTORE POP JUMP JUMPDEST PUSH1 0x0 PUSH2 0x43D PUSH1 0x26 DUP4 PUSH2 0x3D0 JUMP JUMPDEST SWAP2 POP PUSH2 0x448 DUP3 PUSH2 0x3E1 JUMP JUMPDEST PUSH1 0x40 DUP3 ADD SWAP1 POP SWAP2 SWAP1 POP JUMP JUMPDEST PUSH1 0x0 PUSH1 0x20 DUP3 ADD SWAP1 POP DUP2 DUP2 SUB PUSH1 0x0 DUP4 ADD MSTORE PUSH2 0x46C DUP2 PUSH2 0x430 JUMP JUMPDEST SWAP1 POP SWAP2 SWAP1 POP JUMP JUMPDEST PUSH32 0x4F6E6C79206F776E65722063616E2075706461746520616772656D656E742074 PUSH1 0x0 DUP3 ADD MSTORE PUSH32 0x65726D732E000000000000000000000000000000000000000000000000000000 PUSH1 0x20 DUP3 ADD MSTORE POP JUMP JUMPDEST PUSH1 0x0 PUSH2 0x4CF PUSH1 0x25 DUP4 PUSH2 0x3D0 JUMP JUMPDEST SWAP2 POP PUSH2 0x4DA DUP3 PUSH2 0x473 JUMP JUMPDEST PUSH1 0x40 DUP3 ADD SWAP1 POP SWAP2 SWAP1 POP JUMP JUMPDEST PUSH1 0x0 PUSH1 0x20 DUP3 ADD SWAP1 POP DUP2 DUP2 SUB PUSH1 0x0 DUP4 ADD MSTORE PUSH2 0x4FE DUP2 PUSH2 0x4C2 JUMP JUMPDEST SWAP1 POP SWAP2 SWAP1 POP JUMP INVALID LOG2 PUSH5 0x6970667358 0x22 SLT KECCAK256 0x21 STOP SWAP5 PUSH8 0xA8E404A2566823E0 0xDA DELEGATECALL XOR SAR SWAP3 0xE9 SHR 0x49 0xE7 CREATE2 PUSH11 0xB17C29F29D228349856473 PUSH16 0x6C634300080F00330000000000000000 "
				},
				"gasEstimates": {
					"creation": {
						"codeDepositCost": "267800",
						"executionCost": "infinite",
						"totalCost": "infinite"
					},
					"external": {
						"price()": "2451",
						"sellerPaysClosingFees()": "2449",
						"setClosingFeeAgreement(bool)": "26890",
						"setPrice(uint256)": "26854"
					}
				},
				"methodIdentifiers": {
					"price()": "a035b1fe",
					"sellerPaysClosingFees()": "1c93e151",
					"setClosingFeeAgreement(bool)": "aabd43c6",
					"setPrice(uint256)": "91b7f5ed"
				}
			},
			"storageLayout": {
				"storage": [
					{
						"astId": 3,
						"contract": "contracts/2_RealEstatesmartcontract.sol:RealEstateAggreement",
						"label": "owner",
						"offset": 0,
						"slot": "0",
						"type": "t_address"
					},
					{
						"astId": 5,
						"contract": "contracts/2_RealEstatesmartcontract.sol:RealEstateAggreement",
						"label": "price",
						"offset": 0,
						"slot": "1",
						"type": "t_uint256"
					},
					{
						"astId": 7,
						"contract": "contracts/2_RealEstatesmartcontract.sol:RealEstateAggreement",
						"label": "sellerPaysClosingFees",
						"offset": 0,
						"slot": "2",
						"type": "t_bool"
					}
				],
				"types": {
					"t_address": {
						"encoding": "inplace",
						"label": "address",
						"numberOfBytes": "20"
					},
					"t_bool": {
						"encoding": "inplace",
						"label": "bool",
						"numberOfBytes": "1"
					},
					"t_uint256": {
						"encoding": "inplace",
						"label": "uint256",
						"numberOfBytes": "32"
					}
				}
			},
			"userdoc": {
				"kind": "user",
				"methods": {},
				"version": 1
			}
		}
	}
}